:020000040800F2
:1000000000040020B1120008D1130008D113000829
:10001000D1130008D1130008D1130008D113000830
:10002000D1130008D1130008D113000801140008EF
:10003000D1130008D1130008D1130008D11400080F
:10004000D1130008D1130008D1130008D113000800
:10005000D1130008D1130008D1130008D1130008F0
:10006000D1130008D1130008D1130008E1200008C3
:10007000112100084121000871210008A121000878
:10008000D121000801220008E1260008D113000850
:10009000D1130008D1130008D1130008D1130008B0
:1000A000D1130008D1130008D1130008D1130008A0
:1000B0003128000881290008A1290008D11300086F
:1000C000D1130008D1130008D1130008D113000880
:1000D000D1130008D113000871310008D1130008B2
:1000E000D1130008D1130008D1130008D113000860
:1000F000D1130008D1130008D113000831220008E1
:10010000D1130008D1130008D1130008D11300083F
:10011000D1130008512E0008D1130008D113000894
:100120006122000891220008C1220008F122000883
:1001300021230008D1130008D1130008D1130008AF
:10014000D1130008D1130008D1130008D1130008FF
:100150005123000881230008B1230008D1130008AF
:10016000D1130008D1130008D1130008D1130008DF
:10017000D1130008D1130008D1130008D1130008CF
:08018000D1130008D11300089F
:100190002DE9F04F8DB001F02BFE01F009FA504827
:1001A0005049514C514E01F08BFF5148042140F20F
:1001B000823202F0D5FD40F282324D48082102F031
:1001C000CFFD4C484C4901F03BFF4C484FF4805167
:1001D00040F2024202F0C4FD40F2024248480421CB
:1001E00002F0BEFD4748484901F092FE47484849A1
:1001F00001F08EFE474848494FF0000901F038FEF3
:100200003C484649464A84F80090C84603F0C8F87E
:10021000CA46CDF814904D46CDF81890CDF81C90F4
:10022000CDF82090CDF82490CDF82890CDF82C90E2
:10023000CDF8109004E02F4838493A4A03F0B0F85E
:100240002378072BF7D1334801F042FE3378732B24
:100250006CD0002D00F00981002D40F03182B8F102
:10026000000F00F02981B8F1000F40F09282059F45
:10027000002F00F04881059F002F40F0B581BAF1B2
:10028000000F00F0DA81BAF1000F40F05882049AB2
:10029000002A00F0FB81049A002A40F04A81B9F15B
:1002A000000F00F06D81B9F1000F40F05E82099FF0
:1002B0000B9A0097089F0A9B0197079F0D4802978A
:1002C000069F1949039703F06BF800231148124960
:1002D000237001F0CDFD0F48C82101F0E1FDAAE730
:1002E000900B0020103A0008AC0B0020B00B00204F
:1002F00000000240180B0020003A000800080240ED
:10030000000C0240040B002000080020F00A00202E
:1003100030080020E00A0020B0390008C039000889
:10032000C4390008EC390008D0390008A7494B78D7
:10033000A3F13202D2B2C92A00F2FE81962B03EB5E
:10034000830303EB83034FEA830000F24782A0F5A7
:100350009C50083800F0E6FB00F08AFE00250B9068
:10036000B378A3F13202D2B2C92A00F2E081962B0F
:1003700003EB830303EB83034FEA830000F2648201
:10038000A0F59C50083800F0CDFB00F071FE4FF056
:1003900000080A90F378A3F13202D2B2C92A00F21F
:1003A000C281962B03EB830303EB83034FEA8300A5
:1003B00000F23F82A0F59C50083800F0B3FB00F03B
:1003C00057FE0027099005973379A3F13202D2B284
:1003D000C92A00F2A381962B03EB830303EB83036B
:1003E0004FEA830000F21A82A0F59C50083800F012
:1003F00099FB00F03DFE4FF0000A08907379A3F1DD
:100400003202D2B2C92A00F28581962B03EB830314
:1004100003EB83034FEA830000F2F581A0F59C50C3
:10042000083800F07FFB00F023FE002207900492C2
:10043000B379A3F13202D2B2C92A00F26681962BB7
:1004400003EB830303EB83034FEA830000F2D081C5
:10045000A0F59C50083800F065FB00F009FE4FF055
:1004600000090690002D7FF4F7AEDFF878B1584808
:10047000574F294601F06CFD58464021012202F0F9
:100480006FFC40234FF480515248ABF81A304FF4C0
:10049000817202F065FC3A894F4B38460B9F02FB94
:1004A00007F2A3FB0212C2F34F32294601F040FDCE
:1004B000B8F1000F7FF4D7AEDFF828B1444801212E
:1004C00001F046FD58468021012202F049FC8023BC
:1004D0004FF400513F48ABF81A304FF4817202F0EC
:1004E0003FFC3B4B0A9F1A8918463B4B02FB07F225
:1004F000A3FB0212C2F34F32012101F019FD059F47
:10050000002F7FF4B8AEDFF8DCB03148022101F0F3
:100510001FFD58464FF48071012202F021FC4FF478
:1005200080732C48ABF81A304FF480414FF481723D
:100530006FE02A48DFF8ACB0284F022101F008FD37
:10054000049958460A4602F00BFC049B2448ABF879
:100550001A304FF481724FF4807102F001FC3A8935
:100560003846079F1C4B02FB07F2A3FB0212C2F3A3
:100570004F32022101F0DCFCB9F1000F7FF493AEA1
:10058000DFF85CB01548032101F0E2FC58464FF457
:100590000071012202F0E4FB4FF400731148ABF844
:1005A0001A3002214FF4817202F0DAFB0B4B069FE6
:1005B0001A891846084B02FB07F2A3FB0212C2F38A
:1005C0004F32032101F0B4FC71E600BFB00B0020F4
:1005D000040B0020000C02405917B7D1F00A00208C
:1005E0000008024000040240DFF880B29C4802216B
:1005F00001F0AEFC58464FF48041059A02F0B0FB82
:100600004FF480439748ABF81A304FF480714FF4A1
:10061000817202F0A5FB9249099F0A89924B02FB65
:1006200007F20846A3FB0212C2F34F32022101F087
:100630007FFCBAF1000F7FF426AEDFF828B28848BD
:10064000032101F085FC58464FF40071012202F0AD
:1006500087FB4FF400738548ABF81A304FF4004124
:100660004FF4817202F07CFB7D4B089F1A8918467B
:100670007D4B02FB07F2A3FB0212C2F34F320321B0
:1006800001F056FC049A002A7FF405AEDFF8E4B1CD
:100690007748022101F05CFC58464FF4807101223A
:1006A00002F05EFB4FF480736E48ABF81A304FF4E3
:1006B0008172012102F054FB6D4B1A89184650E7F4
:1006C000DFF8A8B16648002101F042FC58462A46EE
:1006D0004FF4805102F044FB4FF480534021ABF8BB
:1006E0001A3060484FF4817202F03AFB5C4B0B9F6A
:1006F0001A8918465C4B02FB07F2A3FB0212C2F3F5
:100700004F32002101F014FCA9E54FF00009CDF8AB
:1007100018909EE500230493079389E64FF0000AA2
:10072000CDF820A06AE60027059709974CE64FF020
:100730000008CDF828802DE600250B9510E6DFF89F
:100740002CB14748032101F003FC58464FF4004107
:10075000524602F005FB4FF400434248ABF81A3012
:100760004FF400714FF481727CE7DFF8F8B0404835
:10077000032101F0EDFB584602214A4602F0F0FA4F
:1007800002233C48ABF81A304FF400714FF48172E9
:100790000AE7DFF8D8B03248414601F0D9FB5846A5
:1007A00042464FF4005102F0DBFA4FF4005380212F
:1007B000ABF81A302B484FF4817202F0D1FA284B73
:1007C0000A9F1A891846284B02FB07F2A3FB021264
:1007D000C2F34F32414601F0ABFB48E5A0F56B5048
:1007E0003C3800F09FF900F043FC01250B90B7E581
:1007F000A0F56B503C3800F095F900F039FC4FF053
:100800000109069025E5A0F56B503C3800F08AF907
:1008100000F02EFC01210790049109E6A0F56B5031
:100820003C3800F07FF900F023FC4FF0010A0890FB
:10083000E4E5A0F56B503C3800F074F900F018FCCA
:10084000012709900597BFE5A0F56B503C3800F0F3
:1008500069F900F00DFC4FF001080A909AE500BF1D
:10086000040B0020000402405917B7D1000C0240CD
:10087000F00A002000080240AFF30080AFF30080D0
:1008800081F0004102E000BF83F0004330B54FEA41
:1008900041044FEA430594EA050F08BF90EA020FAE
:1008A0001FBF54EA000C55EA020C7FEA645C7FEA41
:1008B000655C00F0E2804FEA5454D4EB5555B8BF64
:1008C0006D420CDD2C4480EA020281EA030382EAD5
:1008D000000083EA010180EA020281EA0303362D67
:1008E00088BF30BD11F0004F4FEA01314FF4801C3A
:1008F0004CEA113102D0404261EB410113F0004F4C
:100900004FEA03334CEA133302D0524263EB430302
:1009100094EA050F00F0A780A4F10104D5F1200EA0
:100920000DDB02FA0EFC22FA05F2801841F10001FB
:1009300003FA0EF2801843FA05F359410EE0A5F1CF
:1009400020050EF1200E012A03FA0EFC28BF4CF000
:10095000020C43FA05F3C01851EBE37101F00045B6
:1009600007D54FF0000EDCF1000C7EEB00006EEBC3
:100970000101B1F5801F1BD3B1F5001F0CD349084D
:100980005FEA30004FEA3C0C04F101044FEA4452A4
:1009900012F5800F80F09A80BCF1004F08BF5FEA2B
:1009A000500C50F1000041EB045141EA050130BD0B
:1009B0005FEA4C0C404141EB010111F4801FA4F1AE
:1009C0000104E9D191F0000F04BF01460020B1FA03
:1009D00081F308BF2033A3F10B03B3F120020CDA3B
:1009E0000C3208DD02F1140CC2F10C0201FA0CF019
:1009F00021FA02F10CE002F11402D8BFC2F1200C7E
:100A000001FA02F120FA0CFCDCBF41EA0C01904033
:100A1000E41AA2BF01EB0451294330BD6FEA04047C
:100A20001F3C1CDA0C340EDC04F11404C4F1200267
:100A300020FA04F001FA02F340EA030021FA04F379
:100A400045EA030130BDC4F10C04C4F1200220FAD0
:100A500002F001FA04F340EA0300294630BD21FA0E
:100A600004F0294630BD94F0000F83F4801306BFD4
:100A700081F480110134013D4EE77FEA645C18BFC8
:100A80007FEA655C29D094EA050F08BF90EA020F5F
:100A900005D054EA000C04BF1946104630BD91EA57
:100AA000030F1EBF0021002030BD5FEA545C05D15A
:100AB0004000494128BF41F0004130BD14F5800499
:100AC0003CBF01F5801130BD01F0004545F0FE410D
:100AD00041F470014FF0000030BD7FEA645C1ABF42
:100AE000194610467FEA655C1CBF0B46024650EA79
:100AF000013406BF52EA033591EA030F41F40021A5
:100B000030BD00BF90F0000F04BF0021704730B52A
:100B10004FF4806404F132044FF000054FF00001FF
:100B200050E700BF90F0000F04BF0021704730B5C0
:100B30004FF4806404F1320410F0004548BF404295
:100B40004FF000013EE700BF42004FEAE2014FEAEA
:100B500031014FEA02701FBF12F07F4393F07F4FC5
:100B600081F06051704792F0000F14BF93F07F4FF7
:100B7000704730B54FF4607401F0004521F000413A
:100B800020E700BF50EA010208BF704730B54FF0C0
:100B900000050AE050EA010208BF704730B511F0C5
:100BA000004502D5404261EB41014FF4806404F1FD
:100BB00032045FEA915C3FF4DCAE4FF003025FEA7F
:100BC000DC0C18BF03325FEADC0C18BF033202EB07
:100BD000DC02C2F1200300FA03FC20FA02F001FA61
:100BE00003FE40EA0E0021FA02F11444C1E600BF00
:100BF00070B54FF0FF0C4CF4E06C1CEA11541DBFB3
:100C00001CEA135594EA0C0F95EA0C0F00F0DEF87D
:100C10002C4481EA030621EA4C5123EA4C5350EA62
:100C2000013518BF52EA033541F4801143F48013B3
:100C300038D0A0FB02CE4FF00005E1FB02E506F044
:100C40000042E0FB03E54FF00006E1FB03569CF099
:100C5000000F18BF4EF0010EA4F1FF04B6F5007F9F
:100C600064F5407404D25FEA4E0E6D4146EB060611
:100C700042EAC62141EA55514FEAC52040EA5E509A
:100C80004FEACE2EB4F1FD0C88BFBCF5E06F1ED844
:100C9000BEF1004F08BF5FEA500E50F1000041EB7B
:100CA000045170BD06F0004646EA010140EA020028
:100CB00081EA0301B4EB5C04C2BFD4EB0C0541EA4A
:100CC000045170BD41F480114FF0000E013C00F35F
:100CD000AB8014F1360FDEBF002001F0004170BD83
:100CE000C4F10004203C35DA0C341BDC04F114049C
:100CF000C4F1200500FA05F320FA04F001FA05F228
:100D000040EA020001F0004221F0004110EBD370F4
:100D100021FA04F642EB06015EEA430E08BF20EA20
:100D2000D37070BDC4F10C04C4F1200500FA04F3C3
:100D300020FA05F001FA04F240EA020001F0004155
:100D400010EBD37041F100015EEA430E08BF20EAC8
:100D5000D37070BDC4F1200500FA05F24EEA020E10
:100D600020FA04F301FA05F243EA020321FA04F03F
:100D700001F0004121FA04F220EA020000EBD370F6
:100D80005EEA430E08BF20EAD37070BD94F0000FF6
:100D90000FD101F00046400041EB010111F4801F2A
:100DA00008BF013CF7D041EA060195F0000F18BFDB
:100DB000704703F00046520043EB030313F4801F17
:100DC00008BF013DF7D043EA0603704794EA0C0FD1
:100DD0000CEA135518BF95EA0C0F0CD050EA4106E7
:100DE00018BF52EA4306D1D181EA030101F0004164
:100DF0004FF0000070BD50EA410606BF104619468C
:100E000052EA430619D094EA0C0F02D150EA013697
:100E100013D195EA0C0F05D152EA03361CBF1046D8
:100E200019460AD181EA030101F0004141F0FE4177
:100E300041F470014FF0000070BD41F0FE4141F4FB
:100E4000780170BD70B54FF0FF0C4CF4E06C1CEAFB
:100E500011541DBF1CEA135594EA0C0F95EA0C0FB0
:100E600000F0A7F8A4EB050481EA030E52EA03356B
:100E70004FEA013100F088804FEA03334FF080558C
:100E800045EA131343EA12634FEA022245EA1115B9
:100E900045EA10654FEA00260EF000419D4208BF6A
:100EA000964244F1FD0404F5407402D25B084FEA17
:100EB0003202B61A65EB03055B084FEA32024FF4C3
:100EC00080104FF4002CB6EB020E75EB030E22BF20
:100ED000B61A754640EA0C005B084FEA3202B6EBE0
:100EE000020E75EB030E22BFB61A754640EA5C008F
:100EF0005B084FEA3202B6EB020E75EB030E22BF1F
:100F0000B61A754640EA9C005B084FEA3202B6EB1F
:100F1000020E75EB030E22BFB61A754640EADC00DE
:100F200055EA060E18D04FEA051545EA16754FEA40
:100F300006164FEAC30343EA52734FEAC2025FEA5E
:100F40001C1CC0D111F4801F0BD141EA00014FF0ED
:100F500000004FF0004CB6E711F4801F04BF0143BE
:100F60000020B4F1FD0C88BFBCF5E06F3FF6AFAEDA
:100F7000B5EB030C04BFB6EB020C5FEA500C50F16A
:100F8000000041EB045170BD0EF0004E4EEA1131ED
:100F900014EB5C04C2BFD4EB0C0541EA045170BDF4
:100FA00041F480114FF0000E013C90E645EA060E38
:100FB0008DE60CEA135594EA0C0F08BF95EA0C0F66
:100FC0003FF43BAF94EA0C0F0AD150EA01347FF4AE
:100FD00034AF95EA0C0F7FF425AF104619462CE785
:100FE00095EA0C0F06D152EA03353FF4FDAE1046E8
:100FF000194622E750EA410618BF52EA43067FF439
:10100000C5AE50EA41047FF40DAF52EA43057FF4C8
:10101000EBAE12E70000000000000000000000003E
:101020004FEA410212F5001215D211D56FF4787310
:10103000B3EB625212D94FEAC12343F0004343EAB3
:10104000505311F0004F23FA02F018BF404270478E
:101050004FF00000704750EA013005D111F0004018
:1010600008BF6FF0004070474FF00000704700BFAE
:101070004A0011D212F5001211D20DD56FF4787317
:10108000B3EB62520ED44FEAC12343F0004343EA6C
:10109000505323FA02F070474FF00000704750EAB7
:1010A000013002D14FF0FF3070474FF00000704721
:1010B0004FEA4102B2F1E04324BFB3F5001CDCF17A
:1010C000FE5C0DD901F0004C4FEAC0024CEA5070B2
:1010D000B2F1004F40EB830008BF20F001007047E1
:1010E00011F0804F21D113F13872BCBF01F00040E4
:1010F000704741F480114FEA5252C2F11802C2F116
:10110000200C10FA0CF320FA02F018BF40F0010096
:101110004FEAC1234FEAD32303FA0CFC40EA0C0048
:1011200023FA02F34FEA4303CCE77FEA625307D185
:1011300050EA01331EBF4FF0FE4040F440007047BC
:1011400001F0004040F0FE4040F40000704700BF56
:101150004FF0FF3C06E000BF4FF0010C02E000BF83
:101160004FF0010C4DF804CD4FEA40024FEA410325
:101170007FEA226C18BF7FEA236C11D001B052EADB
:10118000530C18BF90EA010F58BFB2EB030088BFA1
:10119000C81738BF6FEAE17018BF40F00100704710
:1011A0007FEA226C02D15FEA402C05D17FEA236CF2
:1011B000E4D15FEA412CE1D05DF8040B704700BF39
:1011C000844608466146FFE70FB5FFF7C9FF0028D0
:1011D00048BF10F1000F0FBD4DF808EDFFF7F4FF09
:1011E0000CBF012000205DF808FB00BF4DF808EDA2
:1011F000FFF7EAFF34BF012000205DF808FB00BFC5
:101200004DF808EDFFF7E0FF94BF012000205DF8E6
:1012100008FB00BF4DF808EDFFF7D2FF94BF012097
:1012200000205DF808FB00BF4DF808EDFFF7C8FF90
:1012300034BF012000205DF808FB00BF0000000063
:101240004FEA4002B2F1FE4F0FD34FF09E03B3EBD3
:1012500012620DD94FEA002343F0004310F0004F13
:1012600023FA02F018BF404270474FF00000704769
:1012700012F1610F01D1420205D110F0004008BF08
:101280006FF0004070474FF0000070470000000012
:10129000704700BFAFF30080AFF30080AFF3008072
:1012A000FEE700BFAFF30080AFF30080AFF3008034
:1012B00072B6374880F30988022383F31488BFF39A
:1012C0006F8F344A344B9A420BD2D143C91821F064
:1012D0000301131F89184FF0553243F8042F8B4236
:1012E000FBD12E4A82420CD22D49131DC91A21F07E
:1012F0000301131F89184FF0553243F8042F8B4216
:10130000FBD102F015F82749274B99420BD2C8436D
:10131000C01820F00300254C04300023E258CA50C6
:1013200004338342FAD1224A224B9A420AD2D14351
:10133000C91821F00301131F8918002243F8042F54
:101340008B42FBD1FFF7A4FF1B4D1C4B9D420BD2E0
:10135000EE43F618B608043D0136002455F8043F64
:1013600001349847B442F9D1FEF712FF144D154BE2
:101370009D420BD2EE43F618B608043D0136002418
:1013800055F8043F01349847B442F9D1FFF788FF7C
:1013900000080020000000200004002000040020BD
:1013A000030800200008002060080020303A0008F0
:1013B00060080020BC0B002088010008880100089C
:1013C0008801000888010008AFF30080AFF30080B7
:1013D000FEE700BFAFF30080AFF30080AFF3008003
:1013E00072B6FEE7AFF30080AFF30080AFF300808A
:1013F00000F07EFA00DF00BFAFF30080AFF30080A3
:10140000EFF30983203383F30988002383F31188E2
:10141000704700BFAFF30080AFF30080AFF30080F0
:1014200008B50A4B00229A60094A07201021DA60A9
:1014300000F096F80A204FF4007100F091F80B20AC
:101440008021BDE8084000F08BB800BF00ED00E04F
:101450000003FA05AFF30080AFF30080AFF3008024
:10146000202383F31188164B5B6813F4006319D0B3
:10147000EFF30983A3F1200282F3098811494FF0A9
:1014800080708A6943F8040CD07F09689268896883
:1014900058B1914294BF0022012262B10A4A43F836
:1014A000082C704783F311887047914234BF0022A3
:1014B0000122002AF2D1054A43F8082C704700BFE8
:1014C00000ED00E078090020F1130008F413000893
:1014D00008B5202383F3118800F09AF8002383F3E2
:1014E0001188BDE80840FFF7BBBF00BFAFF3008025
:1014F0002DE9F04FC1F80CD0D0F80CD0BDE8F08F3A
:10150000002383F311882846A04700F099FA70471A
:10151000F0B484080F4BC03400F0030553F8247076
:10152000ED00FF26420906FA05F627EA060601FA4B
:1015300005F500F01F0002F16007012101FA00F03B
:101540002E4343F8246043F8270043F82200F0BC00
:10155000704700BF00E100E0AFF30080AFF3008010
:1015600082080A4B063200F0030030B4C00053F882
:101570002250FF2404FA00F425EA040401FA00F1E1
:101580000C4343F8224030BC704700BF00ED00E040
:10159000024B034A9B699A61FEE700BF780900206D
:1015A00080370008AFF30080AFF30080AFF3008016
:1015B00010B582B0FFF734FF00F0D2F800F058F811
:1015C00000F0CEFB00F004FC40210B4800F0A0F935
:1015D0000A49012288610277002383F3118862B6E9
:1015E000074C896907488C610093C021064B00F0C5
:1015F000EFF902B010BD00BF60080020780900209C
:1016000090370008A808002091150008AFF300806B
:1016100038B5134B9B69DA7F0AB1013ADA771A6A57
:10162000104C01321A62E36822680133A242E3607F
:1016300014D09568013D956085B91368D1685C60E8
:101640002360D560002383F3118810698847202325
:1016500083F3118822689368002BEED038BD00BF59
:101660007809002068090020AFF30080AFF3008004
:10167000044B4FF0FF329A6000225B601B60DA601F
:10168000704700BF68090020AFF30080AFF300800F
:1016900070B40C4E03613468C260A568A94204D9D5
:1016A0002468491BA5688D42FAD363680460B4427C
:1016B000436018606060816002D0A368591AA1601D
:1016C00070BC704768090020AFF30080AFF3008062
:1016D0000368074A934203D0996882688A189A601F
:1016E0004268136003685A600023C360704700BFFC
:1016F00068090020AFF30080AFF30080AFF30080F3
:10170000202383F31188037F0D2B11D8DFE803F02A
:1017100020101007100B101010101010100B436A3F
:101720009A6801329A6090E80C001A60026853606F
:101730004FF0FF3242628168074B002202771B683C
:101740009A688A42FBD25A6803604260106058600F
:10175000002383F31188704778090020AFF30080DD
:10176000034B00225B601B609A605B611B617047EA
:1017700078090020AFF30080AFF30080AFF3008062
:1017800000228168054B02771B689A688A42FBD267
:101790005A68036042601060586070477809002002
:1017A000084B10B499691A68087714201468C87730
:1017B00001201077104663601C609A6110BCFFF72F
:1017C00097BE00BF78090020AFF30080AFF3008020
:1017D00030B54B1C87B0054611D00B4C0B4AA369A2
:1017E00001A8FFF755FF2846FFF7DAFF049B13B166
:1017F00001A8FFF76DFFA369586A07B030BDFFF776
:10180000CFFF014CF7E700BF78090020011700085F
:10181000F0B4144F8568BE690446B0686162002365
:1018200085420CD823773B461B689A689542FBD9C2
:101830005A682360626014605C60F0BC7047337764
:101840003B461B689A689042FBD95A6833607260C5
:1018500020465E603146012316602377BC61F0BCF0
:10186000FFF746BE78090020AFF30080AFF3008099
:101870000E4B18689969026830B453608C681A601E
:10188000986114230125CB77002305770B77034656
:1018900000E01B689A68A242FBD25A680B604A605B
:1018A0001160596030BCFFF723BE00BF78090020EB
:1018B0000D4B18689969026830B453608C681A60DF
:1018C00001259861002305770B77034600E01B682C
:1018D0009A68A242FBD85A680B604A60116059604E
:1018E00030BCFFF705BE00BF78090020AFF30080D1
:1018F000034B9B69DB7F0BB1FFF7DABFFFF7B8BF84
:1019000078090020AFF30080AFF30080AFF30080D0
:10191000F0B40F4C016465690461002200F12C06EB
:10192000816000F1280745614FF0020C60610121E0
:10193000142480F81CC04277C477C26382630262B9
:1019400081778261286187620663C662F0BC704756
:1019500078090020AFF30080AFF30080AFF3008080
:101960002DE9F0032439164E4718D6F814C0C76085
:101970004350069B7B60134B3B6202230377142387
:101980000025904600F1280900F12C02C3770123BD
:101990000661C0F80880C0F814C00446706145773D
:1019A000C0F84080C5638563056283778561CCF8A4
:1019B0001000C0F828900263C262BDE8F0037047CF
:1019C0007809002001150008AFF30080AFF3008014
:1019D00010B51C4682B0202383F311882346049C53
:1019E0000094FFF7BDFF00210446FFF711FF00231D
:1019F00083F31188204602B010BD00BFAFF3008012
:101A000038B50E4B9C692546606255F8280FA842F0
:101A100006D00368A362FFF7B3FEA06AA842F8D11C
:101A2000637F9B0704D1636922691A61226953614C
:101A30000E20BDE83840FFF7B3BE00BF7809002094
:101A4000202383F31188FFF7DBBF00BFAFF30080D3
:101A50000023406000608360704700BFAFF30080E8
:101A600008B5826B037F1143082B81630BD0092BD0
:101A700000D008BD436A19408B42FAD1FFF780FEBF
:101A80000023436208BD436A1942F7D108BD00BF75
:101A900070B50468A04205460E4608D0201D0BC84C
:101AA0003343E360FFF7DCFF2468A542F6D170BD45
:101AB00010B4024659B1084B9B69586244680D2026
:101AC00083E814005360236010BCFFF781BE4FF021
:101AD000FF3010BC704700BF78090020AFF30080D2
:101AE00010B4C361019B40608A18002400608460C8
:101AF00041618161C1600261036210BC704700BF37
:101B0000426908B5034680698242986818D001305E
:101B1000986002F8011B19695A618A4228BFDA6885
:101B2000186828BF5A61984208D002681A6053604A
:101B3000FFF726FE00234362184608BD002008BDBB
:101B40000028E4D06FF0030008BD00BFAFF30080B1
:101B500070B5202304460E4683F31188C36903B190
:101B60009847A568204631463DB9FFF7A1FF0028F8
:101B7000F7DA2B4683F3118870BDA3692269013D12
:101B8000A56013F8010B9342A36124BFE368A3612E
:101B9000002383F3118870BDAFF30080AFF30080A2
:101BA0002DE9F0471E460446C769202383F31188B8
:101BB0004FF0000801F1010901EB020A0FB12046C4
:101BC000B847A568204631464DB9FFF771FF002898
:101BD000F7D02B4683F311884046BDE8F087A36910
:101BE000013DA56013F8012B09F8012C2269A361BE
:101BF000934224BFE368A361002383F31188D14596
:101C000008F10108E8D0202383F3118809F10109C4
:101C1000D4E700BFAFF30080AFF30080AFF30080E4
:101C200010B4C361019B40608C1800608260416108
:101C30008161C1600461036210BC7047AFF3008032
:101C4000F8B504460F461646202383F31188A5688D
:101C5000204631463DB9FFF72BFF0028F7DA2B4627
:101C600083F31188F8BD6369013DA56003F8017B2A
:101C700022696361934224BFE3686361E3690BB146
:101C800020469847002383F311881846F8BD00BF0B
:101C900041698269914210B50346816816D00131CD
:101CA000996012F8014B19699A618A4228BFDA6873
:101CB000186828BF9A61984206D002681A6053607B
:101CC000FFF75EFD00234362204610BD0029E6D0E9
:101CD0006FF0020010BD00BFAFF30080AFF30080D3
:101CE0002DE9F0479A46044688461646D0F81C90DF
:101CF000202383F311880027A56820466B1EEDB1D1
:101D0000A36018F8013B656905F8013B236965612B
:101D10009D4224BFE3686361B9F1000F00D0C8475A
:101D2000002383F311880137013E10D0202383F371
:101D30001188A56820466B1E002DE1D12046514632
:101D4000FFF7B6FE0028D7D02B4683F3118838461C
:101D5000BDE8F087AFF30080AFF30080AFF3008001
:101D6000054A064B22F007021A60054A054B22F08D
:101D700007021A60704700BFC30B002098090020BB
:101D800000C0012094090020AFF30080AFF3008071
:101D9000202383F31188094B09491A680968073021
:101DA00020F00700891A88429ABF10181860002294
:101DB000002383F311881046704700BF9809002064
:101DC00094090020AFF30080AFF30080AFF30080F0
:101DD000044B0549002203F1100019609A60DA6093
:101DE000FFF736BEA0090020911D0008AFF3008068
:101DF00008B500F06DFB084800F0C2FE00F010F8D6
:101E000000F026F800F074F800F0F2F800F048F95D
:101E1000BDE8084001F094BAA0380008AFF3008094
:101E200000F006BCAFF30080AFF30080AFF300809A
:101E300000230122027043608360C3600361436139
:101E40001830FFF705BE00BFAFF30080AFF300808E
:101E500000F006BDAFF30080AFF30080AFF3008069
:101E60000123037000234360704700BFAFF300807D
:101E700010B52023044683F31188416000F000FD73
:101E800002232370002383F3118810BDAFF3008079
:101E90000423037000F024BDAFF30080AFF3008093
:101EA00008B5202383F31188FFF7F2FF002383F3A3
:101EB000118808BDAFF30080AFF30080AFF300805E
:101EC0000223037000F01CBDAFF30080AFF300806D
:101ED00008B5202383F31188FFF7F2FF002383F373
:101EE000118808BDAFF30080AFF30080AFF300802E
:101EF00000F066BDAFF30080AFF30080AFF3008069
:101F00000123037000234360704700BFAFF30080DC
:101F100010B52023044683F311888B884160038128
:101F200000F066FD02232370002383F3118810BDA7
:101F300008B5202383F3118800F0F2FD002383F31A
:101F4000118808BDAFF30080AFF30080AFF30080CD
:101F500008B5202383F3118800F002FE002383F3E9
:101F6000118808BDAFF30080AFF30080AFF30080AD
:101F70000C30FFF715BE00BFAFF30080AFF3008059
:101F80000C304FF0FF33FFF70BBE00BFAFF3008004
:101F90003030FFF7A5BE00BFAFF30080AFF3008085
:101FA00030304FF0FF33FFF79BBE00BFAFF3008030
:101FB0000C30FFF7CDBD00BFAFF30080AFF3008062
:101FC0000C304FF0FF31FFF7C3BD00BFAFF300800F
:101FD0003030FFF735BE00BFAFF30080AFF30080B5
:101FE00030304FF0FF32FFF72BBE00BFAFF3008061
:101FF00000F0C6BFAFF30080AFF30080AFF3008006
:1020000070B50E4B82B005460446009045F8043B7F
:10201000656001250B46164604F1540110220C3070
:102020002572FFF75DFD009404F1300004F16401B6
:1020300010223346FFF7F4FD02B070BDB037000840
:1020400010B52023044683F3118800F0A9FF022372
:102050002372002383F3118810BD00BFAFF300800B
:1020600038B5436904460D463BB104F10C002946DE
:10207000FFF746FD00280BDB38BD04300421FFF7D5
:1020800007FD04F10C002946FFF73AFD0028F3DABA
:10209000201D8021BDE83840FFF7FABCAFF3008077
:1020A00001F0AEB8AFF30080AFF30080AFF3008073
:1020B000002301220270437083704360704700BFA9
:1020C00010B52023044683F31188416001F0B0F875
:1020D00002232370002383F3118810BDAFF3008027
:1020E000074B08481968026810B53D2401F03D010E
:1020F0009C600AB140689047BDE81040FFF7B0B956
:1021000000600240C0090020AFF30080AFF3008000
:10211000084B09481968826810B589094FF474643E
:1021200001F03D019C600AB1C0689047BDE81040D5
:10213000FFF796B900600240C0090020AFF30080AD
:10214000084B09481968026910B5090C4FF474145A
:1021500001F03D019C600AB140699047BDE8104024
:10216000FFF77EB900600240C0090020AFF3008095
:10217000084B09481968826910B5890D4FF07464DD
:1021800001F03D019C600AB1C0699047BDE8104074
:10219000FFF766B900600240C0090020AFF300807D
:1021A000074B08485968026A10B53D2401F03D010B
:1021B000DC600AB1406A9047BDE81040FFF750B9B3
:1021C00000600240C0090020AFF30080AFF3008040
:1021D000084B09485968826A10B589094FF474643C
:1021E00001F03D01DC600AB1C06A9047BDE81040D3
:1021F000FFF736B900600240C0090020AFF300804D
:10220000084B09485968026B10B5090C4FF4741457
:1022100001F03D01DC600AB1406B9047BDE8104021
:10222000FFF71EB900600240C0090020AFF3008034
:10223000084B09485968826B10B5890D4FF07464DA
:1022400001F03D01DC600AB1C06B9047BDE8104071
:10225000FFF706B900600240C0090020AFF300801C
:10226000074B08481968026C10B53D2401F03D0188
:102270009C600AB1406C9047BDE81040FFF7F0B891
:1022800000640240C0090020AFF30080AFF300807B
:10229000084B09481968826C10B589094FF47464B9
:1022A00001F03D019C600AB1C06C9047BDE8104050
:1022B000FFF7D6B800640240C0090020AFF30080E9
:1022C000084B09481968026D10B5090C4FF47414D5
:1022D00001F03D019C600AB1406D9047BDE810409F
:1022E000FFF7BEB800640240C0090020AFF30080D1
:1022F000084B09481968826D10B5890D4FF0746458
:1023000001F03D019C600AB1C06D9047BDE81040EE
:10231000FFF7A6B800640240C0090020AFF30080B8
:10232000074B08485968026E10B53D2401F03D0185
:10233000DC600AB1406E9047BDE81040FFF790B8EE
:1023400000640240C0090020AFF30080AFF30080BA
:10235000084B09485968826E10B589094FF47464B6
:1023600001F03D01DC600AB1C06E9047BDE810404D
:10237000FFF776B800640240C0090020AFF3008088
:10238000084B09485968026F10B5090C4FF47414D2
:1023900001F03D01DC600AB1406F9047BDE810409C
:1023A000FFF75EB800640240C0090020AFF3008070
:1023B000084B09485968826F10B5890D4FF0746455
:1023C00001F03D01DC600AB1C06F9047BDE81040EC
:1023D000FFF746B800640240C0090020AFF3008058
:1023E0000C4B30B400220C4D0C4C1A6011461346B5
:1023F000E8580C330160A1500832C02BF8D10849CD
:10240000084A4FF0FF338B60CB609360D36030BCE1
:10241000704700BF400A0020D0370008C0090020E4
:102420000060024000640240AFF30080AFF3008020
:102430002DE9F041214E447A3768012505FA04FC64
:102440001CEA070F34D11E4D4CEA070705EBC40800
:1024500017F0FF0F45F83420C8F80430376004D077
:10246000184B1C6B44F400141C6317F47F4F19D1F4
:102470000468236823F001032360236813F0010537
:10248000FBD1067A43683D2707FA06F61E60212332
:10249000256063617AB1807A0901FFF739F828462F
:1024A000BDE8F081074B1C6B44F480041C63DFE73C
:1024B0002846BDE8F0811046BDE8F081400A0020C2
:1024C000C009002000380240AFF30080AFF3008065
:1024D000254B2649264870B41E69264D264C0022FD
:1024E00046F001061E611A615E6946F001065E61F2
:1024F0005A619E6946F001069E619A611E6A1E62DB
:102500001A625E6A46F001065E621C4E5A624E60B6
:1025100007268A600E60E96841F08071E9602168F1
:1025200041F001012160196C41F08051196401688A
:1025300041F480710160196F01F44071B1F5007FC1
:1025400003D04FF4803119671A67074B1A6F1204D2
:1025500007D41A6F42F400721A671A6F42F40042ED
:102560001A6770BCFFF73CBF0038024010E000E083
:1025700000700040F0ED00E0001000E03F9002002D
:10258000264A274B4FF0805111644FF480411A4680
:10259000196053685904FCD520490B6843F00103C6
:1025A0000B600B681D4A9B07FBD5136843F480330F
:1025B000136011460B68194A9803FBD5536F43F01B
:1025C0000103536711464B6F144A9B07FBD5154B0C
:1025D0005360136843F08073136011460B680F4A11
:1025E0009801FBD59168104B0B4393600F4B40F261
:1025F00005711960936843F002039360936807497B
:1026000003F00C03082BF9D14B6C43F480434B646B
:102610004B6E43F480434B66704700BF0038024066
:10262000007000400854400700940838003C024005
:10263000F8B5124E124D134F134C3046FFF7F8FB0E
:10264000124BF762B362124B28463363FFF7F0FB7D
:10265000104BAB62A7F11803EB620F4B20462B63C4
:10266000FFF7E6FB0D4BA3620D4B243F12205021D8
:10267000E7622363BDE8F840FEF74ABF440A002042
:10268000780A002060380008AC0A002000200140D1
:10269000162C020000210140162C020200220140EB
:1026A000162C0204AFF30080AFF30080AFF300807C
:1026B000C16A0A68136823F0010310B41360136839
:1026C00013F00103FBD10C7A826A49683D2000FABD
:1026D00004F00860536093600123936010BC70475E
:1026E0004B4B1A68002110B51960930605D5494C6B
:1026F000E36A1B685B68002B5ED1474B1A680021B8
:102700009006196005D5454CE36A1B685B68002B91
:102710002FD1434B1A6800211960910625D5414CF1
:10272000E36A1B685B6803B32369F3B12046FFF7D4
:10273000BFFF2369DB683BB10522012122702046DF
:1027400098472378052B5AD000222261202383F357
:102750001188606930B14FF0FF334362314B5A61E9
:10276000FFF70EF8002383F31188BDE81040FEF751
:1027700077BE2369002BCCD02046FFF799FF236951
:10278000DB683BB10522012122702046984723785F
:10279000052B3AD000222261202383F3118860693F
:1027A00030B14FF0FF3343621C4B5A61FEF7E8FF34
:1027B000002383F31188ACE72369002B9DD02046CA
:1027C000FFF776FF2369DB683BB105220121227008
:1027D000204698472378052B14D00022226120231D
:1027E00083F31188606930B14FF0FF334362094BC6
:1027F0005A61FEF7C5FF002383F311887DE70223AA
:102800002370A1E702232370E7E702232370C1E7C7
:1028100000200140440A002000210140780A0020E5
:1028200000220140AC0A0020AFF30080AFF300802B
:1028300008B50A4B1878DA6800210428118204D1FF
:10284000022018701180118291815B6803485B68D7
:102850009847BDE80840FEF703BE00BFE00A00202D
:10286000034B4FF080421846DA60FFF7F9BA00BF19
:10287000E00A0020AFF30080AFF30080AFF30080E8
:102880000378012B10B504460DD06368A1681A685F
:10289000E368B1FBF2F10139002208201A80988028
:1028A00019859A8110BD0A4B9842EED1094B1A6CDA
:1028B00042F001021A641A6A42F001021A6200220E
:1028C0001A621C207021FEF723FE034BA360DCE795
:1028D000E00A00200038024000BD0105AFF300808F
:1028E000C368012200200139D9629A825862188295
:1028F0009A8105221A807047AFF30080AFF3008001
:10290000C36800221A801A829A817047AFF3008050
:1029100038B503691A8A9C89144004F00202E14325
:1029200092B2054619820ABB04F004039BB2C3B9F4
:1029300004F008039BB27BB904F010039BB233B9D7
:10294000E30703D56B6828469B68984738BD6B68DA
:1029500028469B6A9847F3E76B6828461B6A9847A6
:10296000EAE76B6828469B699847E1E743681B697B
:102970009847D9E7AFF30080AFF30080AFF3008052
:1029800008B50348FFF7C4FFBDE80840FEF768BD7F
:10299000F00A0020AFF30080AFF30080AFF30080B7
:1029A00008B50348FFF7B4FFBDE80840FEF758BD7F
:1029B000040B0020AFF30080AFF30080AFF3008082
:1029C00038B5064D064C2846FFF79AFA054B2046C7
:1029D0002B61FFF795FA044B236138BDF00A002004
:1029E000040B00200004004000080040AFF300800A
:1029F0000378012B70B504465ED0036900221A806B
:102A00009A811A825A639A63DA631A645A62616815
:102A1000E66825890868CA688C8D013DB6FBF0F030
:102A200002F00F020138ADB2012A1885DD629C80E8
:102A300003D0022A0CBF03220022486900F00F00D5
:102A400001281ED002281AD0C86900F00F00012802
:102A50001ED002282BD0486A00F00F0001281ED09B
:102A600002281FD089681A840A1C18BF012201217C
:102A700099829A8100221A8285221A8070BD42F0C2
:102A80002002C86900F00F00012842F01002E0D1D6
:102A900042F48072486A00F00F000128E0D142F44D
:102AA0008052DFE742F4005242F48052DAE742F407
:102AB000007242F48072EDE7134B984208D0134B3A
:102AC000984217D0236946F668021A839A839EE7D4
:102AD0000F4B1A6C42F002021A641A6A1D2042F06F
:102AE00002021A6200221A627021FEF711FD094BE0
:102AF000E360E7E7064B1A6C42F004021A641A6AB4
:102B00001E2042F00402ECE7F00A0020040B002033
:102B10000038024000BD0105AFF30080AFF3008034
:102B200010B44468036904EBC10001F10C0403EB29
:102B300084040069626058B19A89022092B200FA56
:102B400001F1114204D189B2C8431143998118821D
:102B500010BC7047AFF30080AFF30080AFF300808C
:102B6000036901F10C0203EB8202002050609A8994
:102B7000022092B200FA01F122EA01019981704724
:102B80002DE9F00FDFF8BC91DFF8BC81D9F830A057
:102B9000DFF8B8C1654F664E664D674C6749684AB5
:102BA000DFF8ACB16FEA5A2A6FEA4A2AC9F830A0B6
:102BB000D9F850A06FEA5A2A6FEA4A2AC9F850A0F9
:102BC0004368C8F804308368C8F80830C368C8F898
:102BD0000C300369C8F814304369C8F820308369A1
:102BE000C8F824300368C8F80030036ACCF8043011
:102BF000436ACCF80830836ACCF80C30C36ACCF84E
:102C00001430036BCCF82030436BCCF82430C3690C
:102C1000CCF80030C36B7B60036CBB60436CFB6023
:102C2000836C7B61C36C3B62036D7B62836B3B6037
:102C3000876D7760C76DB760076EF760476E776125
:102C4000876E3762C76E7762476D3760466F6E601A
:102C5000866FAE60C66FEE60D0F880606E61D0F8AF
:102C600084602E62D0F888606E62066F2E60D0F8A5
:102C700090506560D0F89450A560D0F89850E56009
:102C8000D0F89C506561D0F8A0502562D0F8A450CF
:102C90006562D0F88C502560D0F8AC404C60D0F81C
:102CA000B0408C60D0F8B440CC60D0F8B8404C61F3
:102CB000D0F8BC400C62D0F8C0404C62D0F8A840BC
:102CC0000C60D0F8C8105160D0F8CC109160D0F8EA
:102CD000D010D160D0F8D4105161D0F8D810116262
:102CE000D0F8DC105162D0F8C4101160D0F8E420A4
:102CF000CBF80420D0F8E820CBF80820D0F8EC205E
:102D0000CBF80C20D0F8F020CBF81420D0F8F42029
:102D1000CBF82020D0F8F820CBF82420D0F8E02001
:102D2000CBF80020BDE8F00F704700BF000802405C
:102D3000000C024000100240001402400018024043
:102D4000001C024000380240000002400004024023
:102D500000200240AFF30080AFF30080AFF30080AB
:102D60002DE9F00F002302F00307C2F38006C2F33F
:102D7000C105C2F341144FF00F09C2F3C3124FF063
:102D8000010A38E0D0F820B02BEA0C0C4CEA080815
:102D9000C0F82080D0F804C00AFA03F82CEA080C26
:102DA0004CEA060CC0F804C04FF0030B4FEA430C8A
:102DB000D0F808800BFA0CFC6FEA0C0C0CEA08083F
:102DC00048EA0508C0F80880D0F80C800CEA08082A
:102DD00048EA0408C0F80C80D0F800800CEA080C1F
:102DE0004CEA070CC0F800C049081AD07600AD00C4
:102DF000A400BF00013303F0070C4FEA8C0C11F064
:102E0000010F02FA0CF809FA0CFCEDD0072BB9D926
:102E1000D0F824B02BEA0C0C4CEA0808C0F8248047
:102E2000B8E7BDE8F00F7047AFF30080AFF3008064
:102E3000034B9A8992B242F080029A81704700BF98
:102E400000500040AFF30080AFF30080AFF300808C
:102E5000F8B5474B5D6FAE892C88A988A4B22207CC
:102E6000B6B20F464BD104F480739BB2002B34D121
:102E700004F020039BB2002B24D106F080039BB208
:102E800023B104F080039BB2002B59D104F040041D
:102E9000A4B29CB1202383F3118836481021FEF799
:102EA000F7FD002383F311884FF6BF733340AB81E6
:102EB0002B8823F040031B041B0C2B80BDE8F8403B
:102EC000FEF7CEBA202383F311882948F9B2FFF721
:102ED000C7F8002383F31188CFE7202383F31188F9
:102EE00024484FF40071FEF7D3FD002383F31188CB
:102EF0002B8823F480731B041B0C2B80B8E704F091
:102F0000080292B2002A14BF80210021E30704F0D6
:102F100002039BB248BF41F020010BB141F04001D8
:102F200004F004039BB20BB141F48071202383F3BE
:102F300011881048FEF7ACFD002383F3118892E757
:102F4000202383F311880C48FEF7A2FE002804DB3F
:102F5000A880002383F3118898E706480821FEF72C
:102F600097FD26F0C00343F04003AB81F1E700BFBB
:102F7000180B00201C0B0020480B0020AFF3008032
:102F800010B5044C044A20460021FFF739F8034BE2
:102F9000636710BD180B0020312E00080050004060
:102FA00038B5037A1C4C002918BF0C46012B054686
:102FB0001FD06B6F194A934228D002F5806293426A
:102FC00024D022681649B1FBF2F21A81A288E08867
:102FD000218942F4045242F02C0240F0400041F0BA
:102FE0000101188299829A8100221A801A889B888E
:102FF00038BD0C4B9842DCD10B4B1A6C42F480125A
:103000003520C0211A64FEF783FAD2E72268074907
:10301000B1FBF2F21A81D9E79038000800100140A4
:1030200080DE8002180B00200038024000BD010540
:10303000436810B40469DA68236800F11801C068B5
:10304000D960002A14BF4FF488724FF48072024393
:10305000012159601A601A680A431A6010BC70474F
:1030600030B404692268136823F001031360136805
:10307000DB07FCD4257A416963680A683D2404FAB9
:1030800005F41C60136823F001031360136813F048
:103090000103FBD10C7A826849683D2000FA04F0F4
:1030A000086093811382938230BC7047AFF3008035
:1030B00011F00C0F10B504461CD161690A68136841
:1030C00023F0010313601368D807FCD4087A6368FF
:1030D0004A681B683D2101FA00F11160022262700A
:1030E0002BB1204698476378022B00D010BD0023F7
:1030F000637010BDFEF774F9DFE700BFAFF3008027
:1031000011F00C0F10B5044623D1A3783BB96368C6
:10311000DB68EBB1218B204689B2984710BD21694D
:103120000A68136823F0010313601368DB07FCD4FB
:10313000087A63684A689B683D2101FA00F11160D2
:103140000222A27043B120469847A378022B03D0F5
:1031500010BDFEF745F9D8E700232046A370BDE86F
:103160001040FFF765BF00BFAFF30080AFF30080F2
:1031700070B51F4EB5682C88AB88A4B240F20F130F
:10318000234013B373681B694FF6FF622A80E3B1D3
:1031900004F0080189B2002914BF10210021E207C0
:1031A00004F0020292B248BF41F004010AB141F0BA
:1031B000080104F0040292B2BAB904F4807292B227
:1031C0000AB141F040010A48984704F04004A4B213
:1031D0003CB173685B684FF6BF722A800BB104483C
:1031E0009847BDE87040FEF73BB941F02001E4E7A5
:1031F000900B0020AFF30080AFF30080AFF30080AE
:1032000010B5064C2046FEF753FF054B054A2361D7
:10321000A2600C330622E260636110BD900B0020B7
:103220000C38000800440040AFF30080AFF300808A
:10323000F8B50378012B044630D085680023A370CD
:1032400063702046FFF70CFFA368324A93423AD0DE
:1032500002F58062934236D063682F495A69B1FB08
:10326000F2F22A815F68188B598B9A8B2B88AB8876
:1032700042F20C1642F24C13002F08BF33460343B0
:103280000020288041F0400142F0C10220462982FE
:10329000AA82AB81BDE8F840FFF7CABE1F4B984237
:1032A0001DD063681B8B03F4A053B3F5805F11D06E
:1032B00022696369A56811681A682B1D8B60936089
:1032C00000232383BAE7636815495A69B1FBF2F218
:1032D0002A81C7E7E36843F42053E360E8E70C2161
:1032E000104A00692346FFF7A3F80C210E4A6069D3
:1032F0002346FFF79DF80D4B1A6C42F400321A6416
:103300002620C021FEF704F9E36843F00063E36080
:10331000C7E700BF0010014080DE8002900B002054
:1033200000BD010501310008B1300008003802403D
:10333000FFF726B9AFF30080AFF30080AFF3008052
:10334000704700BFAFF30080AFF30080AFF30080A1
:10335000F0B4002B08BF0B4600F10B0C00F10A057E
:10336000B1FBF2F602FB161101F13004392CC8BF93
:1033700001F13704B3FBF2F32F46314605F801495A
:10338000002BEDD1C7EB0C023B46821801E013F88D
:10339000014F00F8014B9042F9D1F0BC704700BFDB
:1033A0000EB42DE9F04F8EB017AB0DF1210C0DF1DD
:1033B000200853F8044BCDF808C0C8EB0C0C079359
:1033C0000646CDF80CC0254615F8011B59B1252934
:1033D0000ED033682C46254630469B68984715F832
:1033E000011B0029F3D10EB0BDE8F04F03B07047C8
:1033F00063782D2B00F056814FF000092E2B00F042
:103400004D8120272C460799002506E00A780431D3
:1034100005EB8505237802EB4505A3F13002D2B216
:103420000134092AF4D92A2BF0D000202E2B079141
:103430004BD06C2B55D04C2B53D0A3F14101192903
:103440008CBF00210121A3F14402342A00F2208123
:10345000DFE812F00E011E011E011E011E011E01F9
:103460001E011E011E011E011E010C011E011E0176
:103470001E011E011E0104011E011E01F6001E0197
:103480001E011E011E011E011E011E011E011E0144
:103490001E01D6000E011E0191001E011E011E011B
:1034A0001E011E011E011E011E010C011E011E0136
:1034B0001E014F001E0104011E011E01F6000A78C4
:1034C000043100EB800002EB400014F8013BA3F153
:1034D0003002D2B2092AF4D92A2BF0D06C2B0791F2
:1034E000A9D12278002A00F0E2800134134601219C
:1034F000A9E7079B844AD3F800A0BAF1000F08BFE0
:10350000924604339AF80020079347F6FF73002889
:1035100008BF1846002A00F0EE805346504402E0EF
:10352000904200F0DC8059785A1C13460029F7D1EC
:10353000CAEB020BCBEB0505202725EAE575B9F1AF
:10354000000F6ED0BBF1000FC8BF0AEB0B0907DDFF
:1035500033681AF8011B9B6830469847CA45F7D173
:10356000002D3FF430AF336830469B6839469847AA
:10357000013DF8D127E7079B073323F0070303F149
:103580000802D3E900010792FDF792FD002183466E
:10359000FDF72CFE002840F0A680C2465846FDF7F5
:1035A0004FFE84460A22614650460023CDF804C0EF
:1035B000FFF7CEFE82462E230AF8013B5846FDF760
:1035C000C3FADDF804C0CDE904016046FDF7AAFAAC
:1035D00002460B46DDE90401FDF756F948A3D3E99D
:1035E0000023FDF705FBFDF71BFD0A22014642F211
:1035F00010735046FFF7ACFEC246C8EB000B09E063
:10360000079BDDF80CB01A68043307938DF820206F
:103610002027C246CBEB050525EAE575B9F1000F79
:1036200090D16D42002D8DD09AF800102D294BD0ED
:10363000336830469B68394698470135F8D181E7B1
:103640001022079B71B1191D07911968404600238C
:10365000FFF77EFEC246C8EB000BDBE70A22079BA2
:103660000029F0D1181D19680790EFE70822E8E754
:10367000079B1A1DE9B91968079200291DDB40460E
:103680000A220023FFF764FEC246C8EB000BC1E725
:103690008DF82030DDF80CB0C246BBE76B783027E0
:1036A0000135AFE6A51CA3784FF00109A6E601217C
:1036B000C9E6196807920029E1DA2D238DF8203038
:1036C00049420DF12100DBE7302FB1D1336830469C
:1036D0009B6898470AF1010A0BF1FF3BA8E7CAEB88
:1036E000000B202796E72D230BF1004B8DF820309F
:1036F0000DF1210A52E7934620278BE7AFF30080B4
:1037000000000000006AF840A0390008AFF3008014
:1037100010B4054A1378062B03D8044C581CE15406
:10372000107010BC704700BFAC0B0020B00B002025
:1037300038B5114C114D00210A462046FEF7F8FB22
:10374000204601210022FEF7F3FB20460221002241
:10375000FEF7EEFB204603210022FEF7E9FB0221E3
:1037600000222846FEF7E4FB284603210022BDE89C
:103770003840FEF7DDBB00BF040B0020F00A00203C
:1037800069646C650000000000000000000000009B
:103790006D61696E00164211040448080C1014187B
:1037A000001C1D1E1F200000000000000000000083
:1037B000A11F0008811F0008E11F0008C11F0008A9
:1037C000D11F0008B11F0008911F0008711F0008D9
:1037D000106002400860024000000B0028600240B8
:1037E0000860024006010C00406002400860024090
:1037F00010020D00586002400860024016030E00DF
:10380000706002400C60024000040F0088600240BB
:103810000C60024006051000A06002400C600240EF
:1038200010061100B86002400C60024016072F001D
:103830001064024008640240000838002864024016
:1038400008640240060939004064024008640240EE
:10385000100A3A005864024008640240160B3B000C
:10386000706402400C640240000C3C00886402401A
:103870000C640240060D4400A06402400C64024047
:10388000100E4500B86402400C640240160F46005A
:1038900000C2010000000040000000000000000025
:1038A00000AAA02A00000000FFABFFFF5400014067
:1038B000FFFF00000000565500AA0A008020080003
:1038C00040020000FFFFFFFF15455155FFFF0000BC
:1038D0000000000440000000018020020000000001
:1038E000FFFFFFFF54154554FFFF0000000000607C
:1038F000000606000001005500000000FFFFFFFF6A
:1039000055501500FF0F00000000000000000000EF
:103910004000000000000000FFFFFFFF000000006B
:10392000FFFF000000000000000000000000000099
:1039300000000000FFFFFFFF00000000FFFF00008D
:103940000000000000000000000000000000000077
:10395000FFFFFFFF00000000FFFF0000000000006D
:10396000000000000000000000000000FFFFFFFF5B
:1039700000000000FFFF0000000000000000000049
:103980000000000000000000FFFFFFFF000000003B
:10399000FFFF000000000000000000000000000029
:1039A000286E756C6C29000000000000000000000B
:1039B0001027000031370008000000000000000060
:1039C000257300005374617274207570000000004C
:1039D0002555202D202555202D202555202D20250D
:1039E00055202D202555202D202555004675657222
:1039F0006100000000000000000000000000000066
:103A00000096000000000000000000000000000020
:103A10000000000000000000000000001137000856
:103A20000000000000C201000000000000000000D3
:103A3000A0860100640000000000000001000000FA
:103A40000000000001000000000000000100000074
:103A50000000000001000000000000000000000065
:103A6000A0860100640000000000000001000000CA
:103A70000000000001000000000000000100000044
:103A80000000000001000000000000000000000035
:04000005080001905E
:00000001FF
